:100000000C94E0110C9408120C9408120C94081231
:100010000C9408120C9408120C9408120C940812F8
:100020000C9408120C9408120C948B1A0C94FA1A63
:100030000C9408120C9408120C9408120C940812D8
:100040000C9408120C9408120C9408120C940812C8
:100050000C9408120C9408120C9408120C942C1D89
:100060000C9408120C9408120C9408120C940812A8
:100070000C9408120C9408120C9408120C94081298
:100080000C9408120C9408120C9408120C94081288
:100090000C9408120C9408120C9408120C94081278
:1000A0000C9408120C9408120C9408120000000022
:1000B000003E5B4F5B3E3E6B4F6B3E1C3E7C3E1CEE
:1000C000183C7E3C181C577D571C1C5E7F5E1C0034
:1000D000183C1800FFE7C3E7FF0018241800FFE7EB
:1000E000DBE7FF30483A060E2629792926407F05AE
:1000F0000507407F05253F5A3CE73C5A7F3E1C1CC4
:1001000008081C1C3E7F14227F22145F5F005F5F83
:1001100006097F017F006689956A6060606060946F
:10012000A2FFA29408047E040810207E2010080874
:100130002A1C08081C2A08081E101010100C1E0C7F
:100140001E0C30383E3830060E3E0E060000000011
:100150000000005F00000007000700147F147F14F8
:10016000242A7F2A1223130864623649562050003D
:1001700008070300001C2241000041221C002A1C29
:100180007F1C2A08083E0808008070300008080814
:100190000808000060600020100804023E51494534
:1001A0003E00427F400072494949462141494D3352
:1001B0001814127F1027454545393C4A49493141B9
:1001C000211109073649494936464949291E000087
:1001D00014000000403400000008142241141414DC
:1001E0001414004122140802015909063E415D59C8
:1001F0004E7C1211127C7F494949363E41414122D1
:100200007F4141413E7F494949417F090909013EFA
:10021000414151737F0808087F00417F4100204021
:10022000413F017F081422417F404040407F021C33
:10023000027F7F0408107F3E4141413E7F0909094A
:10024000063E4151215E7F09192946264949493216
:1002500003017F01033F4040403F1F2040201F3FDC
:100260004038403F63140814630304780403615961
:10027000494D43007F4141410204081020004141A3
:10028000417F04020102044040404040000307084F
:100290000020545478407F2844443838444444284B
:1002A000384444287F385454541800087E090218F2
:1002B000A4A49C787F0804047800447D400020407A
:1002C000403D007F1028440000417F40007C0478BE
:1002D00004787C080404783844444438FC18242406
:1002E0001818242418FC7C08040408485454542486
:1002F00004043F44243C4040207C1C2040201C3C03
:100300004030403C44281028444C9090907C4464F9
:10031000544C44000836410000007700000041368C
:10032000080002010204023C2623263C1EA1A16112
:10033000123A4040207A3854545559215555794144
:100340002154547841215554784020545579400C1B
:100350001E527212395555555939545454593955FC
:100360005454580000457C410002457D420001453F
:100370007C40F0292429F0F0282528F07C545545AC
:10038000002054547C547C0A097F4932494949323F
:100390003248484832324A4848303A4141217A3A54
:1003A00042402078009DA0A07D39444444393D401E
:1003B00040403D3C24FF2424487E4943662B2FFCCB
:1003C0002F2BFF0929F620C0887E09032054547979
:1003D000410000447D413048484A32384040227A4A
:1003E000007A0A0A727D0D19317D2629292F2826C7
:1003F0002929292630484D402038080808080808CF
:100400000808382F10C8ACBA2F102834FA00007B27
:10041000000008142A142222142A1408950022002D
:1004200095AA005500AAAA55AA55AA000000FF00E7
:10043000101010FF00141414FF001010FF00FF1024
:1004400010F010F0141414FC001414F700FF000056
:10045000FF00FF1414F404FC141417101F10101FD5
:10046000101F1414141F00101010F0000000001FC3
:10047000101010101F10101010F010000000FF10CE
:100480001010101010101010FF10000000FF1400CA
:1004900000FF00FF00001F10170000FC04F41414FC
:1004A0001710171414F404F40000FF00F7141414C8
:1004B00014141414F700F7141414171410101F1048
:1004C0001F141414F4141010F010F000001F101F6B
:1004D0000000001F14000000FC140000F010F010D9
:1004E00010FF10FF141414FF141010101F00000050
:1004F00000F010FFFFFFFFFFF0F0F0F0F0FFFFFF54
:100500000000000000FFFF0F0F0F0F0F38444438AA
:10051000447C2A2A3E147E02020606027E027E02E5
:1005200063554941633844443C04407E201E200604
:10053000027E020299A5E7A5991C2A492A1C4C7241
:1005400001724C304A4D4D303048784830BC625AC8
:10055000463D3E494949007E0101017E2A2A2A2A58
:100560002A44445F444440514A444040444A514034
:100570000000FF0103E080FF000008086B6B0836F5
:1005800012362436060F090F060000181800000066
:100590001010003040FF0101001F01011E00191D55
:1005A0001712003C3C3C3C000000000000B0000082
:1005B000A170E150964F26900F1D070C0096690020
:1005C0004AE44A0048444000806810000F99FB8FBD
:1005D0009DBDBBFB77D4D4DF1F1A1AFE7F5D5DFF84
:1005E000805A0000A0A4AA0010BA3400FF5953F3A7
:1005F000FF9B9B9EFFB9B996FF9595D19FF4940FF1
:10060000FC295F91FF1838F8FF9294FFFF95D5F70A
:10061000BFB5DDD7F18F81F1F788C8F779C6467984
:1006200009FD9B090196F800828182805071620069
:100630007756560076763700A2B773010772060028
:100640007827500073347400775176007F55F70097
:1006500047711000324772007364730015A2750071
:1006600061679400009F6060F4F2F6F2F0F89C8EEF
:100670008783878E9CF8F00000FEFF0303030303CB
:10068000070EFCF80000FEFF0303030303070EFC44
:10069000F80000FFFF00000000000000FFFF000066
:1006A000FEFF8383838383C7EE7C380000F8FC0E53
:1006B00007030303070EFCF800003F7FE0C08080C3
:1006C000C0E07F3FFFFF01010101010101FFFF00C9
:1006D00000FFFF0C0C0C0C1C3E77E3C100007FFFF9
:1006E000C0C0C0C0C0E0703F1F00001F3F70E0C02E
:1006F000C0C0E0703F1F00007FFFC1C1C1C1C1E3A6
:10070000773E1C00001F3F70E0C0C0C0E0703F1F7C
:10071000000000000001FFFF01000000D5F08D1473
:10072000A1C881CFD9F1AF20002020202020202097
:100730002076312E322E31312020202020200080C2
:100740004000000000000000000000000000000069
:100750000000000000000000000000000000000099
:100760000000000000000000000000000000000089
:100770000000000000000000000000000000000079
:100780000000000000000000000000000000000069
:100790000000000000000000000000000000000059
:1007A0000000000000000000000000000000000049
:1007B0000000000000000000000000000000000039
:1007C0000080E0301888C8CCC4CCC8888888888865
:1007D0008888C8C8CCC4C4E6E2E2F3F1F1F1E302D0
:1007E000061CF000000000000000000000000000F7
:1007F0008080C040406060604040C08000000000D9
:10080000000000000000008080C04040C0808000E8
:10081000000000000080C040404040E030101090D8
:100820001030206040C08000000000000000000088
:10083000000000000080C04060202030302060C0F8
:10084000000F18206047CF8F9F9F1F1F1FFFFFFFC4
:10085000FFFFFF0F8F8F6F7F076777038383018011
:10086000E0E2F1F1F9F1F1E3C2860C38701C068385
:10087000E1F8FCFCFEFEFEFEFEFCF0018786027243
:1008800062027262828601E0F8FCFCFCFCF8E18303
:10089000061C780E0300F8FCFEFEFCF80000FFFFCB
:1008A000FFFFFE7C7C3831230606021331211941FB
:1008B00001030642637178FCFCFEFFFFFF0000812C
:1008C000FF0000000000000000FF0000E0FFFFFF4D
:1008D000FFFFFF0001393E9EFFFFDEBC1901F8FF5C
:1008E000FFFFFFFFFF3FFFFFFFFFFCF0C0F8FEFF31
:1008F000FFFF7F0FFFFFFFFFFFFFFF0001193CBE5F
:10090000FFFFDEBE3D0100FFFFFFFFFFFFFFFFFF18
:10091000FEF8C00000FFFFFFFFFFFFFF000000E345
:10092000F139DCCCCEC60E0E1C38F0E00000C0F071
:10093000389CCCCE86060E0C1C79F3C70100F88FCC
:10094000000000000000000000FF0000FFFFFFFFAC
:10095000FFFFFF000000FFFFFFFFFFFF00003FFF62
:10096000FFFFFFFFFF0000031F7FFFFFFFFFFF3FB1
:100970000F010000FFFFFFFFFFFFFF000000FFFF70
:10098000FFFFFFFFFE0000FFFFFFFFFFFF01071F4C
:10099000FFFFFFFFF8FFFFFFFFFFFF010000047FE5
:1009A000F0C00F0F1F0F07000080E07F1F003FFF08
:1009B000C69F1F1F0F02000080E0FF3F000000FFE6
:1009C000000000000000000000FF00003FFFFFFFEC
:1009D000FFFFFF0000007FFFFFFFFF7F0000001F01
:1009E000FFFFFFFFFFFE00000CFC08091909080CBF
:1009F000FE010070FFFFFFFFFF7F030000007FFF8D
:100A0000FFFFFF7F1F00FFFFFFFFFFFFFF000080D2
:100A100080071FFFFFFFFFFFFFFF1F0000C08000D8
:100A200001737377763606064743014C3C3C4C8095
:100A3000414307062676767773010080C0701E0357
:100A4000000000000000000000030E18206367474C
:100A500047476320301C040C08080C0C04020C18D7
:100A6000101333233311180C07030000000000009B
:100A700003060C081111111111180C060306040CC1
:100A800008080C0C0C183023674767632130180FD7
:100A900003061810312323232331100C070101030F
:100AA000040C18102020604040C080838282838024
:100AB000C0404040602030180804060100000000DB
:100AC0000000000000000000000000000000000026
:100AD0000000000000000000000000000000000016
:100AE0000000000000000000000000000000000006
:100AF00000000000000000000000000000000000F6
:100B000000000000000000000000000000000000E5
:100B100000000000000000000000000000000000D5
:100B200000000000000000000000000000000000C5
:100B300000000000000000000000000000000000B5
:100B40000020203E20547261696E2054694D694E28
:100B50006F6F203C202000203E20437564646C654C
:100B6000202054694D694E6F6F203C200020203EAC
:100B70002057617368202054694D694E6F6F203C87
:100B80002020003E20506C617920776974682054E1
:100B9000694D694E6F6F203C0020203E2046656500
:100BA00064202054694D694E6F6F203C2020002046
:100BB0005468616E6B7320666F7220706C61796926
:100BC0006E67212000202020202B20313030302063
:100BD000706F696E747320202020001C1CC0C0F050
:100BE000F0FCFCFFFF3F3FFFFFFFFFFFFFFFFF3F6A
:100BF0003FFFFFFCFCF0F0C0C0FFFFFFFFFFFFFF67
:100C0000FFF0F0FFFFFFFFFFFFFFFFF0F0FFFFFF30
:100C1000FFFFFFFFFF3F3FFFFFF0F0C0C00C0C0CD9
:100C20000C0C0C0C0C0C0C0C0CC0C0F0F0FFFF3FBB
:100C30003F0000000003030F0F0F0F0F0F0F0F0FE8
:100C40000F0F0F0F0F0F0F030300000000202020D5
:100C50002020204E6F20706F696E7473202020203A
:100C60002020001C1CC0C0F0F0FCFCFFFF3F3F3FF9
:100C70003FFFFFFFFF3F3F3F3FFFFFFCFCF0F0C0A7
:100C8000C0FFFFFFFFF3F30000FCFCFFFFFFFFFFCF
:100C9000FFFFFFFCFC0000F3F3FFFFFFFF3F3FFF00
:100CA000FFFFFF0000FFFF0303C0C0C0C00303FF3E
:100CB000FF0000FFFFFFFF3F3F00000000030300B5
:100CC000000F0F0F0F0F0F0F0F0F0F0F0F0000036D
:100CD00003000000000B0A1C3E7FFFFEFCFEFF7FAE
:100CE0003E1C00000000010301000000000B0BCCC3
:100CF0008687CF7F3F7FCF8786CC00000703070220
:100D000007030700005B425D20204B697373207E60
:100D1000204375737320205B415D00202020596FB4
:100D2000752068617665206E6F6E652E2E2E2020F0
:100D3000004D61796265206E6578742074696D6517
:100D40002E2E2E00202020202B20353030302070F9
:100D50006F696E74732020202000202020202B201B
:100D6000313030303020706F696E74732020200075
:100D7000417777207468616E6B73203C33002020CC
:100D8000596F75206875672043686943686920203A
:100D90000020202020202D2031204F72616E6765B9
:100DA000202020202020005468616E6B7320612079
:100DB0006C6F7421002020202D203120537472612B
:100DC00077626572727920202020005468616E6B12
:100DD00020796F75203C3300202020202020202007
:100DE00059756D202120202020202020200049201E
:100DF0006E65656420746F20637564646C6500497A
:100E0000206E656564206F72616E676573004920AE
:100E10006E6565642073747261776265727269656C
:100E200073001C203030F0F0F0F0F0F000003C3C9B
:100E3000FFFFFFFFFFFF3C3C0000F0F00000F0F080
:100E40000C0C0C0C33333333CCCCC0C030303030CE
:100E5000F0F0F0F03C3CCFCF3030FFFFC3C3C3C352
:100E60000C0C0C0C30303030C3C3C3C30C0C00006E
:100E7000FFFFCFCFFFFF3F3F00000000030303034E
:100E80000C0C0C0C30303030C3C30000F3F33F3F88
:100E90000F0F03031E200000000000000000C0C070
:100EA00030303030C0C0C3C33C3C00000000000004
:100EB00000000000C0C0C0C0C0C0C0C0C3C3CCCC14
:100EC000C0C0C0C0C0C0C0C0C0C0C0C00000000022
:100ED0000000FFFFFFFFFFFFFFFFFFFFFFFFFFFF20
:100EE000FFFFFFFFFFFFF3F303030303FFFFFCFC20
:100EF00003030F0FCFCFCFCFCFCFCFCFCFCFCFCF1A
:100F0000CFCFCFCF0F0F0C0C0C0C0F0F030348618A
:100F1000766520736F6D65203C33004920616D203C
:100F2000736164004920616D20636F6F6B696E6748
:100F3000004920676F7420636F636F2063616B6586
:100F400021004920676F74206D61746368612074AB
:100F500065612100486920667269656E6421001E22
:100F60001CC0C0F0F03C3CCCCCF0F0F0F0F3F3F35C
:100F7000F3F3F3F3F3F0F0F0F0F0F0C0C00000038F
:100F8000030000FFFFFFFF3F3FCFCFF3F3F3F3CFAB
:100F9000CFCFCF3F3F3F3FFFFFFFFFFFFF000000EE
:100FA000003C3CFCFCC0C0FFFFFFFFC3C3FFFFFFD2
:100FB000FFFFFFC3C3FCFCFCFCC0C000000000003E
:100FC0000003030F0F0F0F0F0F0F0F0F0F0F0F0C5B
:100FD0000C0C0C0F0F0F0F03031C1A0F0FF3F3FC75
:100FE000FC0F0FFFFFFFFFFFFF0F0FFFFFFFFFFFD4
:100FF000FFFCFCF3F30F0F3C3CFFFFFFFFFFFFF391
:10100000F3F3F3FFFFFFFFFFFFFFFFFFFFFFFF3FD4
:101010003F00000000F0F0FCFC3C3CFFFFFFFFFF46
:10102000FFFFFFFFFFFCFC3C3CFCFCF0F00000007D
:1010300000000000000303030300000000000000A4
:1010400000030303030000000000004B6E6F636B9E
:10105000206B6E6F636B21001C1EFFFF0303C3C375
:10106000C3C3C3C3C3C3C3C3C3C3C3C3C3C3C3C350
:10107000C3C30303FFFFFFFF0000FFFFFFFFC0C06C
:10108000FCFCFCFCFCFCFCFCC0C0FFFFC0C0000082
:10109000FFFFFFFF0000F0F0FFFF0F0FCFCFCFCF1C
:1010A000CFCFCFCF0F0FFFFF3F3F0000FFFF3F3FEE
:1010B00000003F3F3F3F3C3C3F3F3F3F3F3F3F3FC4
:1010C0003C3C3F3F303000003F3F446F75626C65F1
:1010D0002073636F7265202B205265706C617900FC
:1010E00020202020202B203120206F72616E676528
:1010F0002020202020002020202020202B203120F4
:10110000206D696C6B2020202020200020202020D2
:10111000202B203120206772617065202020202044
:10112000200020202020202B203120206170706C96
:1011300065202020202020002020202B203120206E
:1011400073747261776265727279202020002020AA
:101150002020202B2031206F6620616C6C21202004
:10116000202020002020204E6F7468696E672C209C
:10117000626F6F202120202020001C1C0000F0F056
:10118000FCFCFFFF3F3F3C3C3C3C3F3FFFFFFCFC87
:10119000F3F30C0CF0F0000000003F3FFFFFFFFFF7
:1011A000F0F0F3F3F0F0F0F0F3F3F3F3C3C3303007
:1011B000CFCF00000000FCFCFCFCFCFCC0C0CCCC91
:1011C000C0C0C0C0FFFFFFFFFFFF0000FFFF000027
:1011D0000000000003030F0F0F0F030303030F0FA3
:1011E0000F0F03030C0C0303000000001C1C000085
:1011F00000000000804040404040404040404040AF
:10120000404040800000000000000000000000009E
:1012100001FD2525D901F92525F901FD2525D9014E
:101220000000000000000000000000000C15151573
:1012300014141514141514151414150C00000000C2
:10124000000000000000000000000000000000009E
:10125000000000000000000000000000000028283E
:101260007E7171710F0F0F00000F0F0F0F0F0F0F17
:101270000F0F0F0F0F0F0F0F0F0F0F0F0F0F0F008D
:10128000000F0F0F7171717EFEFEFEFE0000000068
:10129000000000000000000000000000000000004E
:1012A000000000000000000000000000FEFEFEFE46
:1012B000FFFFFFFF00000000000000000000000032
:1012C000000000000000000000000000000000001E
:1012D00000000000FFFFFFFF7F7F7F7F0000000016
:1012E00000000000000000000000000000000000FE
:1012F0000000000000000000000000007F7F7F7FF2
:101300007E8E8E8EF0F0F00000F0F0F0F0F0F0F055
:10131000F0F0F0F0F0F0F0F0F0F0F0F0F0F0F000BD
:1013200000F0F0F08E8E8E7E7878787820436174AD
:1013300073696E6F2044656C75786520787878786D
:1013400000202020202020416C6C20636C65616EA1
:1013500020796179202100202020202B203120209D
:10136000456475636174696F6E2020200050756C50
:101370006C206D792066696E6765722E2E2E0A7458
:101380006565686565210A0A20202D2D204B6F6B4D
:101390006F005761736820796F75722068616E64A1
:1013A000730A6166746572206C756E63682E0A0A32
:1013B00020202D2D204B6F6B6F004E6576657220BF
:1013C0007961776E0A647572696E6720636C617308
:1013D000732E0A0A20202D2D204B6F6B6F00416C5D
:1013E0007761797320776561720A70616E74732E0C
:1013F0000A0A20202D2D204B6F6B6F00446F206E4A
:101400006F7420736E65657A650A6F6E2074686507
:10141000206275732E0A0A20202D2D204B6F6B6FD2
:1014200000536F6D6574696D657320646F67730A2F
:1014300061726520677265792E0A0A20202D2D20A1
:101440004B6F6B6F0047657420726561647920662D
:101450006F7220610A6E6577206C6573736F6E2002
:10146000776974682E2E2E0A0A7E204B6F6B6F20D0
:101470004C6520536E61696C207E00202020202066
:10148000202020202020486921203E2020202020CC
:10149000001A163C3CFFFFCFCF3C3CC0C03C3CCFC9
:1014A000CFFFFF3C3C0000000000000000000000F7
:1014B00000FCFCCFCFCFCFFFFFFCFCC0C0FCFC0F7B
:1014C0000FF3F30F0FFCFC000000000F0F3F3F3F36
:1014D0003F3F3F3F3F3C3C3333333333333C3C0FA0
:1014E0000F49206C6F766520796F750049206C6F0D
:1014F000766520796F75000B0A1C3E7FFFFEFCFEAF
:10150000FF7F3E1C000000000103010000000020DE
:101510002020202020202059756D202120202020EF
:1015200020202020002020202020204E6F20206618
:101530006F6F6420202020202020001C1C0000F061
:10154000F03C3C3F3FFFFFFFFF3F3F3F3FFFFFFCC3
:10155000FCF0F0000000000000FFFFFFFFF0F03C97
:101560003C0F0F0F0F3C3CF0F0FFFFFFFFFFFFFFB2
:10157000FF3C3CF0F003030F0FFFFFFCFCFFFF3CC0
:101580003CFCFCFFFFFFFFFFFFCFCF3F3FFFFFFC17
:10159000FC00000000000003030F0F0F0F0000030A
:1015A000030F0F0F0F030300000000000020202096
:1015B00020546173747920206170706C6520202044
:1015C0002020001C1C0000000F0F3F3F3F3F3F3F0B
:1015D0000C0CF0F00000C0C0C0C0C0C00000000093
:1015E0000000FCFC0F0F0303C3C3FCFCFCFCFFFF6B
:1015F000FCFCCCCCCFCFF3F3FFFFFCFC00003F3F63
:10160000C0C000000F0F3F3F3F3F3F3F3F3F3F3FC6
:101610000F0F0F0FFFFF3F3F00000000000003030C
:101620000C0C0C0C0C0C0C0C0C0C0C0C0C0C03030C
:101630000000000000202020204A756963792020E6
:101640006F72616E676520202020001C1CE0E0F8AE
:10165000F81818E0E0E0E080808080808080808062
:1016600080E0E0F8F81818E0E0FFFFFFFF0000FF5F
:10167000FFE7E7F9F97F7FE7E77F7FF9F9E7E7FF22
:10168000FF0000FFFF07071F1F7E7EF9F9E7E79FB6
:101690009F9E9E9F9F9E9E9F9FE7E779791E1E07B4
:1016A000070000000000000101010101010101012A
:1016B00001010101010101000000000000202020C3
:1016C00020204661726D20206D696C6B20202020E7
:1016D0002020001C1C000000000000000000008012
:1016E000C0C0C0C0804080000000000000000000BA
:1016F00000000000000000C0D0D8DCDDDDDD1DED05
:10170000F5387DFC7830E0000000000000000000AB
:101710000000003F3F3F3F3F3F3F003F3F383F3EDD
:101720003F383F0000000000000000000000000003
:1017300000000000000000000000000000000000A9
:1017400000000000002020202046726573682020E1
:1017500067726170657320202020001C1C0000C08F
:10176000C0C0C000000000C3C3CCCCC0C00000009B
:10177000000000C0C0C0C000000F0F30303333C0C5
:10178000C0CFCF3F3F303033330F0FC0C0CFCF304B
:101790003033330F0F000000000F0F303033333F72
:1017A0003F0F0FC0C0CFCF303033330F0F000000DA
:1017B000000000000000000000000003030C0C0CFF
:1017C0000C0303000000000000000000002020596E
:1017D000756D6D79202073747261776265727279AC
:1017E0002020001C1C0000000000003C3C3C3C3061
:1017F00030CCCCCCCC30303C3C3C3C000000000039
:10180000000000FCFCCFCFFFFFFCFCF3F3F3F3F38D
:10181000F3F3F3FCFCFFFF3F3FFCFC000000000380
:10182000030F0F3F3FF3F3FFFFFFFF3F3FFCFCFFC2
:10183000FF3F3F0F0F030300000000000000000007
:101840000000000303030303030303000000000080
:101850000000000000303000000000000000000028
:10186000000000000000000000000000000000FF79
:10187000FFFFFF0F0F0F0FF0F0F0F0F0F0F0F00FA0
:101880000F0F0FFFFFFFFF0000000000000000002F
:101890000000000000000000000000FFFFFFFF004C
:1018A00000000000000000F0F0F0F0000000000F69
:1018B0000F0F0FF0F0F0F00000000000000000003B
:1018C0000000000000000000000000FFFFFFFF001C
:1018D0000000000000000000000000000000000008
:1018E000000000FFFFFFFF000000000000000000FC
:1018F00000000000000000FFFFFFFF0000000000EC
:10190000000000000000000000000000000000FFD8
:10191000FFFFFF00000000F0F0F0F00F0F0F0F0FBF
:101920000F0F0FFFFFFFFF0F0F0F0F000000000052
:10193000000000F0F0F0F000000000F0F0F0F00F18
:101940000F0F0FF0F0F0F00F0F0F0F0F0F0F0F0F23
:101950000F0F0FFFFFFFFFF0F0F0F0F0F0F0F0F0EE
:10196000F0F0F0FFFFFFFFF0F0F0F0FFFFFFFFF0FF
:10197000F0F0F0FFFFFFFF3030000000000000003B
:101980000000000000000000000000000000000057
:1019900000FFFFFFFF0F0F0F0FF0F0F0F0F0F0F07F
:1019A000F00F0F0F0FFFFFFFFF000000000000000F
:1019B00000000000000000000000000000FFFFFF2A
:1019C000FF0000000000000000F0F0F0F000000058
:1019D000000F0F0F0FF0F0F0F0000000000000000B
:1019E00000000000000000000000000000FFFFFFFA
:1019F000FF000000000000000000000000000000E8
:101A00000000000000FFFFFFFF00000000000000DA
:101A1000000000000000000000FFFFFFFF000000CA
:101A200000000000000000000000000000000000B6
:101A300000FFFFFFFF0000000000000000F0F0F0DA
:101A4000F00F0F0F0FFFFFFFFF0F0F0F0F00000032
:101A50000000000000F0F0F0F000000000F0F0F0F6
:101A6000F00F0F0F0FF0F0F0F0FFFFFFFFF0F0F0BE
:101A7000F00F0F0F0FFFFFFFFFF0F0F0F0F0F0F0AE
:101A8000F0F0F0F0F0FFFFFFFFF0F0F0F0FFFFFFED
:101A9000FFF0F0F0F0FFFFFFFF1A1CF0F0FCFC3F3E
:101AA0003FCFCFCFCF0F0FCFCFCFCF0F0FCFCF3F66
:101AB0003FFCFCF0F000000C0CCFCF0303CFCFFFB6
:101AC000FFFFFF3C3CF0F0FCFCFFFF0C0C000000B3
:101AD00000000000000F0FFFFF3F3FFCFCF0F0FC98
:101AE000FC0F0F00000000000000000000000000DC
:101AF0000000000F0F0000030300000000000000C2
:101B00000000001E1EF0F00C0CF3F3F3F3030303CC
:101B1000030C0CF0F00000000000000000000000CA
:101B20000000000F0F3030C0C0C0C0CCCCC3C330E9
:101B3000300F0FC0C03030CCCCCCCC0C0C3030C00F
:101B4000C000000000C0C03030F0F03030C0C00035
:101B5000000F0F3030C3C3C3C3CCCC30300F0F00E5
:101B60000000000F0F3333303030300F0F00000013
:101B7000000000000000000000000000001818F045
:101B8000F0FCFCFFFFFFFFFCFCF0F0F0F0FCFCFFC2
:101B9000FFFFFFFCFCF0F03F3FFFFFC3C30000006E
:101BA000000303030300000000C3C3FFFF3F3F0027
:101BB00000000003030F0F3C3CF0F0F0F03C3C0F42
:101BC0000F0303000000001A1CFCFCFFFF0F0FF3C3
:101BD000F3FFFF3F3F3F3F3F3FFFFFF3F30F0FFF99
:101BE000FFFFFFFFFFFFFFC0C03F3FF3F3F3F3F33F
:101BF000F3F3F3F3F33F3FC0C0FFFFFFFFFFFF0F1F
:101C00000FF3F3F3F3C3C3C3C3C3C3F3F3F3F3F3A8
:101C1000F3F3F30303C3C303030C0C0C0C0C0C0C05
:101C20000C0C0C0C0C0C0C0C0C0C0C0C0C0C0C0FF1
:101C30000F2014F0F00C0CF3F3FCFCFFFF3F3FFF10
:101C4000FFFFFFFFFFFFFFFFFF3F3FFFFF3F3FFCA7
:101C5000FCF0F0FFFF0000FFFFFFFFFCFCF0F0FCDA
:101C6000FCFFFFF3F3F3F3FFFFF3F3FFFFF3F3FFE7
:101C7000FFFFFF000003030C0C03030F0F0F0F0FF8
:101C80000F030303030C0C03030F0F0F0F0F0F03BE
:101C900003000030300000000000000000000000E1
:101CA000000000000000000000FFFFFFFF0F0F0F0B
:101CB0000FF0F0F0F0F0F0F0F0F0F0F0F00F0F0FA8
:101CC0000FFFFFFFFF000000000000000000000009
:101CD000000000000000000000FFFFFFFF00000008
:101CE00000F0F0F0F00000000000000000F0F0F064
:101CF000F0FFFFFFFF0000000000000000000000F8
:101D0000000000000000000000FFFFFFFF000000D7
:101D100000000000000000000000000000000000C3
:101D200000FFFFFFFF0000000000000000000000B7
:101D30000000000000FFFFFFFF00000000000000A7
:101D400000000000000000000000000000FFFFFF96
:101D5000FF00000000FFFFFFFF0F0F0F0FF0F0F07C
:101D6000F0F0F0F0F00F0F0F0F0000000000000087
:101D700000F0F0F0F000000000F0F0F0F00F0F0FB6
:101D80000FF0F0F0F0000000000F0F0F0FF0F0F078
:101D9000F0FFFFFFFFF0F0F0F0F0F0F0F0F0F0F007
:101DA000F0FFFFFFFFF0F0F0F0FFFFFFFFF0F0F0BB
:101DB000F0FFFFFFFF3030000000000000000000D7
:101DC0000000000000000000000000FFFFFFFF0F08
:101DD0000F0F0FF0F0F0F0F0F0F0F0F0F0F0F00F87
:101DE0000F0F0FFFFFFFFF000000000000000000CA
:101DF0000000000000000000000000FFFFFFFF00E7
:101E0000000000F0F0F0F00000000000000000F022
:101E1000F0F0F0FFFFFFFF000000000000000000F6
:101E20000000000000000000000000FFFFFFFF00B6
:101E300000000000000000000000000000000000A2
:101E4000000000FFFFFFFF00000000000000000096
:101E500000000000000000FFFFFFFF000000000086
:101E6000000000000000000000000000000000FF73
:101E7000FFFFFF00000000F0F0F0F00F0F0F0F0F5A
:101E80000F0F0FFFFFFFFF0F0F0F0F0000000000ED
:101E9000000000F0F0F0F000000000F0F0F0F00FB3
:101EA0000F0F0FF0F0F0F00F0F0F0F0F0F0F0F0FBE
:101EB0000F0F0FFFFFFFFFF0F0F0F0F0F0F0F0F089
:101EC000F0F0F0FFFFFFFFF0F0F0F0FFFFFFFFF09A
:101ED000F0F0F0FFFFFFFF303000000000000000D6
:101EE00000000000000000000000000000FFFFFFF5
:101EF000FF0F0F0F0FF0F0F0F0F0F0F0F0F0F0F057
:101F0000F00F0F0F0FFFFFFFFF00000000000000A9
:101F100000000000000000000000000000FFFFFFC4
:101F2000FF00000000F0F0F0F000000000000000F2
:101F300000F0F0F0F0FFFFFFFF00000000000000E5
:101F400000000000000000000000000000FFFFFF94
:101F5000FF00000000000000000000000000000082
:101F60000000000000FFFFFFFF0000000000000075
:101F7000000000000000000000FFFFFFFF00000065
:101F80000000000000000000000000000000000051
:101F900000FFFFFFFF0000000000000000F0F0F075
:101FA000F00F0F0F0FFFFFFFFF0F0F0F0F000000CD
:101FB0000000000000F0F0F0F000000000F0F0F091
:101FC000F00F0F0F0FF0F0F0F0FFFFFFFFF0F0F059
:101FD000F00F0F0F0FFFFFFFFFF0F0F0F0F0F0F049
:101FE000F0F0F0F0F0FFFFFFFFF0F0F0F0FFFFFF88
:101FF000FFF0F0F0F0FFFFFFFF30300000000000C6
:10200000000000000000000000000000000000FFD1
:10201000FFFFFF0F0F0F0FF0F0F0F0F0F0F0F0F017
:10202000F0F0F00F0F0F0FFFFFFFFF0000000000A8
:10203000000000000000000000000000000000FFA1
:10204000FFFFFF00000000F0F0F0F00000000000D3
:10205000000000F0F0F0F0FFFFFFFF0000000000C4
:10206000000000000000000000000000000000FF71
:10207000FFFFFF0000000000000000000000000063
:1020800000000000000000FFFFFFFF000000000054
:102090000000000000000000000000FFFFFFFF0044
:1020A0000000000000000000000000000000000030
:1020B000000000FFFFFFFF0000000000000000F034
:1020C000F0F0F0F0F0F0F0F0F0F0F00F0F0F0F0084
:1020D00000000000000000F0F0F0F000000000F050
:1020E000F0F0F00F0F0F0FF0F0F0F0FFFFFFFFF038
:1020F000F0F0F0F0F0F0F0FFFFFFFFF0F0F0F0F0A4
:10210000F0F0F0F0F0F0F0FFFFFFFFF0F0F0F0FF84
:10211000FFFFFFF0F0F0F0FFFFFFFF1C1CC0C0F05E
:10212000F0FCFCFFFF3F3FFFFFFFFFFFFFFFFF3F14
:102130003FFFFFFCFCF0F0C0C0FFFFFFFFFFFF3FD1
:102140003F30303F3F3F3F3F3F3F3F30303F3FFF1B
:10215000FFFFFFFFFF3F3FFFFFFFFFF0F0C0C03F6B
:102160003F3C3C3C3C3F3FC0C0F0F0FFFFFFFF3F27
:102170003F0000000003030F0F0F0F0F0F0F0F0F93
:102180000F0F0F0F0F0F0F0303000000001C1CC0E8
:10219000C0F0F0FCFCFFFFFFFFFFFFFFFFFFFFFFB2
:1021A000FFFFFFFFFFFCFCF0F0C0C0FFFFFFFFFFE1
:1021B000FFFFFFC0C0FFFFFFFFFFFFFFFFC0C0FF2B
:1021C000FFFFFFFFFFFFFF3F3FFFFFFFFFFFFFFF9F
:1021D000FFFCFCF3F3F3F3FCFCFFFFFFFFFFFFFF4B
:1021E000FF3F3F0000000003030F0F0F0F0F0F0F03
:1021F0000F0F0F0F0F0F0F0F0F030300000000381A
:10220000300000000000000000F0F0F0707F7F7FE1
:10221000070707070707070707070707070707074E
:10222000070707070707070707070707070707073E
:1022300007077F7F7F70F0F0F000000000000000D3
:1022400000FFFFFF00000000000000000000000091
:10225000000000000000000000000000000000007E
:102260000000000000000000000000000000FFFF70
:10227000FF0000000000000000FFFFFF0000000062
:10228000000000000000000000000000000000004E
:10229000000000000000000000000000000000003E
:1022A000000000000000FFFFFFF0F0F0F0FFFFFF74
:1022B000FFFFFFFF00000000000000000000000022
:1022C000000000000000000000000000000000000E
:1022D0000000000000000000000000000000FFFF00
:1022E000FF0000000000000000FFFFFF00000000F2
:1022F00000000000000000000000000000000000DE
:1023000000000000000000000000000000000000CD
:10231000000000000000FFFFFF00000000000000C0
:10232000000F0F0F0EFEFEFEE0E0E0E0E0E0E0E078
:10233000E0E0E0E0E0E0E0E0E0E0E0E0E0E0E0E09D
:10234000E0E0E0E0E0E0E0E0E0E0FEFEFE0E0F0FA7
:102350000F080B0002020200000904000001020243
:1023600000000524001001052401010104240206D7
:10237000052406000107058103100040090401003F
:10238000020A000000070502024000000705830260
:102390004000000403090412010002EF0201404161
:1023A00023368000010102030141726475696E6F7A
:1023B000204C4C430041726475626F790000A91D86
:1023C00011241FBECFEFDAE0DEBFCDBF11E0A0E0E9
:1023D000B1E0E8E9F9E602C005900D92A236B10736
:1023E000D9F726E0A2E6B1E001C01D92AC36B207F3
:1023F000E1F711E1C0EED1E104C02197FE010E9496
:10240000B034CF3DD107C9F70E948B1E0C94CA345B
:102410000C940000EFE2F2E0A0E0B8E000800EBC17
:102420008111012C1197A0FDFDCF0192B9F70DB4D8
:1024300008958F929F92AF92BF92DF92EF92FF9298
:102440000F931F93CF93DF93EC01FA011491319610
:10245000E491A12FB0E07D01E80EF91E1E141F04C7
:102460000CF097C0803891050CF093C0CB018E0F13
:10247000911D181619060CF08CC0603471050CF013
:1024800088C0F62FF770DF2ECB0177FD079623E08B
:10249000959587952A95E1F7F82F77FF04C0DD2001
:1024A00011F0FFEFF80F222733272C1B3D0BD7FD30
:1024B00002C030E020E060E8E616F1040CF461C0F0
:1024C00080E8E82EEC1AE21A6F2F0F2E000C770B23
:1024D000062F0095FF3F0CF000E091E08E2F8770F3
:1024E00009F490E0E695E695E6959E0F690F711D5B
:1024F0006930710514F098E09F1BF02EFF0E6F2DD0
:1025000070E8670350011124B5016C0F7D1F620F45
:10251000731F4E5F5F4F109F200D311D1124420F1E
:10252000531F2D2D0D2C000C330B9F0F9F1589F180
:10253000EB01C15DDD4F10E000E00E1520F5FA0162
:10254000E00FF11FE491F0E04F01022E02C0880C71
:10255000991C0A94E2F7F7FC03C0888188298883D4
:10256000DD2059F086E08F1544F05E01E0E8AE0E04
:10257000B11CF5018081892980830F5F1F4F21964F
:10258000DCCFE12EA0CFF3944A0F5B1F60587F4F42
:10259000CDCFDF91CF911F910F91FF90EF90DF9002
:1025A000BF90AF909F908F900895662301F161389E
:1025B00008F060E8AC014770552721E001C0220F08
:1025C0004A95EAF7FC0183E0F595E7958A95E1F7EE
:1025D000F695FE2FEE27F795E795E15DFD4F6150EB
:1025E00030F08191DF011197822B8C93F8CF089501
:1025F000FC018091DE01882311F13FB7F89482E05D
:102600008093E9002091F200822F90E018161906BD
:1026100014F481E090E0882339F0289844E6409350
:10262000DD014091F1004083222339F02091F20036
:10263000211103C02BE62093E8003FBF08958FEFE0
:102640009FEF08952FB7F89483E08093E90090916D
:10265000E800892F807295FF04C09091F20080E419
:10266000891B2FBF08958091D50181110DC082E093
:102670008093D10184E08093D2011092D401109212
:10268000D30181E08093D50181ED91E00895CF934E
:10269000DF931F92CDB7DEB76983DC01ED91FC912A
:1026A0000280F381E02D41E050E0BE016F5F7F4F7B
:1026B00009950F90DF91CF91089583E08093E90011
:1026C0008091F200882319F08AE38093E80008954E
:1026D0000E94221390E00895CF93DF931F92CDB70D
:1026E000DEB7FC018485958597FD08C02FEF3FEF8D
:1026F000358724870F90DF91CF910895CE01019601
:102700000E94F812019719F4898190E0F3CF8FEFBE
:102710009FEFF0CF0F931F93CF93DF931F92CDB70F
:10272000DEB78C01FC018485958597FF0BC0CE0137
:1027300001960E94F812019771F4898190E0F801E6
:1027400095878487F801848595850F90DF91CF91D7
:102750001F910F9108958FEF9FEFF1CFFC018485BA
:10276000958597FD0BC09FB7F89482E08093E900B0
:102770008091F2009FBF90E0019608959FB7F89472
:1027800082E08093E9008091F2009FBF90E008957D
:102790004091CB015091CC012091C9013091CA01E7
:1027A00042175307B4F49091E8009570E1F39091CB
:1027B000E80092FD19C08093F1008091CB019091C7
:1027C000CC0101968F739927892B19F48EEF809392
:1027D000E8008091CB019091CC0101969093CC01BF
:1027E0008093CB0181E0089580E00895DF92EF921D
:1027F000FF920F931F93CF93DF93D82E8A01EB01A3
:102800007B01E40EF51ECE15DF0559F0D7FE12C090
:10281000FE0184910E94C81321968111F4CF0FEF1D
:102820001FEFC801DF91CF911F910F91FF90EF90A3
:10283000DF9008958881EECF0F931F93CF93DF939E
:102840001F92CDB7DEB782E0898342E450E061E5B4
:1028500073E280E80E94F6130E943313DC011296A3
:102860000D911C910115110589F0D801ED91FC9194
:102870000280F381E02DBE016F5F7F4FC801099593
:1028800097FD04C0F80100851185ECCF89810F9078
:10289000DF91CF911F910F910895615030F02091F9
:1028A000F100FC0120830196F8CF289884E68093FC
:1028B000DD010895EF92FF920F931F93CF93DF9363
:1028C0008C017B01D0E0C0E0F701EC0FFD1F6491AB
:1028D000662361F0D801ED91FC910190F081E02D2B
:1028E000C8010995892B11F02196EECFCE01DF9119
:1028F000CF911F910F91FF90EF900895AF92BF92EB
:10290000CF92DF92EF92FF920F931F93CF93DF93BB
:102910006C017B018B01040F151FEB015E01AE18EA
:10292000BF08C017D10759F06991D601ED91FC910C
:102930000190F081E02DC6010995892B79F7C50139
:10294000DF91CF911F910F91FF90EF90DF90CF908B
:10295000BF90AF9008953FB7F89480916301909134
:102960006401A0916501B091660126B5A89B05C0E0
:102970002F3F19F00196A11DB11D3FBFBA2FA92FFE
:10298000982F8827BC01CD01620F711D811D911DFB
:1029900042E0660F771F881F991F4A95D1F7089567
:1029A0008F929F92AF92BF92CF92DF92EF92FF925F
:1029B0006B017C010E94AB144B015C01C114D1047A
:1029C000E104F104B9F00E94AB14681979098A098D
:1029D0009B09683E73408105910580F321E0C21A8E
:1029E000D108E108F10888EE880E83E0981EA11C4A
:1029F000B11CE4CFFF90EF90DF90CF90BF90AF90ED
:102A00009F908F9008958F929F92AF92BF92CF9296
:102A1000DF92EF92FF920F931F93CF93DF936C019E
:102A20007B018A0180911C01882309F45CC080919C
:102A3000DE01882309F457C08091D00180FF05C0D2
:102A40008091E00082608093E000E801B12C8AEF81
:102A5000A82E93E0892E2AE3922E209711F4BB2012
:102A6000D9F10E94221381110AC0AA94AA20D9F197
:102A700061E070E080E090E00E94D014EECF8C170F
:102A80001D0611F00CF08C2F9FB7F8948092E9008E
:102A90002091E80025FD02C09FBFDFCF282F30E046
:102AA000C21BD30BF701815020F041914093F100FC
:102AB000FACFE20EF31EBB2021F09092E800B12C79
:102AC000EBCF8091E80085FDE7CF9092E800BB2432
:102AD000B394209709F3F3CF5D9884E68093CF01F8
:102AE000101611063CF081E090E0F601938382839A
:102AF00010E000E0C801DF91CF911F910F91FF908E
:102B0000EF90DF90CF90BF90AF909F908F900895FF
:102B10006F927F928F929F92AF92BF92CF92DF92ED
:102B2000EF92FF920F931F93CF93DF934C017B01A2
:102B3000C22F102F98E0A92EB12C642E66946694B3
:102B40006694712CCA0187709927892B79F5D40175
:102B500017962D913C91C7019927B9010E949C3489
:102B6000269DF001279DF00D369DF00D11248E0F4E
:102B70009F1FD4011596ED91FC91E80FF91F20815C
:102B8000111112C0C095C223C083DF91CF911F9154
:102B90000F91FF90EF90DF90CF90BF90AF909F90FC
:102BA0008F907F906F900895C22BEECFD0E047704A
:102BB000C42ED12C83E0660C771C8A95E1F79E0128
:102BC00001C0220F4A95EAF7012FA301B701C40102
:102BD0000E948815A301485F5F4FC5018C199D09AC
:102BE00002C0D595C7958A95E2F7A7CF5F926F92FD
:102BF0007F928F929F92AF92BF92CF92DF92EF928D
:102C0000FF920F931F93CF93DF93EC016A30F1F49F
:102C10008D859E859C878B878C892F853889820F2F
:102C2000932F911D988B8F8781E090E0DF91CF915A
:102C30001F910F91FF90EF90DF90CF90BF90AF90DA
:102C40009F908F907F906F905F900895AB84BC842D
:102C5000693031F429E0A20EB11CBC86AB86E4CF0A
:102C60003DEFA3163FEFB3060CF45DC08F8198854E
:102C7000A816B9060CF057C0CF84D8888DEFC816B7
:102C80008FEFD8060CF44FC089859A85C816D906EF
:102C90000CF049C0603208F46FE780EE860F9FE9C0
:102CA000960F9A3118F49FEFC91AD90A8C3011F097
:102CB0008B3119F42FEFC21AD20A869534E0839F24
:102CC000C00111249C0124553A4F7901912C812C8B
:102CD000162F1170F701E80DF91D549011112DC038
:102CE000352D3F70532E3501680C791C8C8188235B
:102CF00061F001E089899A89892B09F000E02FE0D1
:102D0000A601B301CE010E9488150989252DA601CF
:102D1000B301CE010E9488158FEF881A980A94E0BB
:102D200089169104B9F68B8990E004962B853C8531
:102D3000820F931F9C878B8777CF52948FE0582206
:102D4000D2CF2D9A0895BC0190E080E00C94D0146D
:102D50008FB18095807F669B88601C9B84600895FE
:102D600080E0EFE2F2E081118FEF00248193819304
:102D7000819381930394D1F71092710110927001A5
:102D8000109273011092720108959091740198232A
:102D900029F490917501982381E009F480E0089569
:102DA00080E00C940A1280389105B8F46034710503
:102DB000A0F420E191E061FD94E060FD990F62FDD7
:102DC0009295687F269FD0011124A80FA15DBD4F69
:102DD0008C9140FF03C0892B8C9308959095892393
:102DE000FBCFAF92BF92CF92DF92EF92FF920F9301
:102DF0001F93CF93DF938C016B01C81AD90AD7FEBA
:102E000003C0D194C194D1088FEF061717070CF4B3
:102E100081E0CFE3D0E0F12CE12CA82E880FBB0895
:102E200041E0B801C7010E94D316CC19DD09D7FFD4
:102E300004C00A0D1B1DC158DF4F8FEFE81AF80AB6
:102E400080E8E816F10461F7DF91CF911F910F91AF
:102E5000FF90EF90DF90CF90BF90AF9008952F92AA
:102E60003F924F925F926F927F928F929F92AF921A
:102E7000BF92CF92DF92EF92FF920F931F93CF9367
:102E8000DF93CDB7DEB728970FB6F894DEBF0FBE3D
:102E9000CDBF6D3009F476C0B09000010B2D10E06D
:102EA0006A3009F458C080916701811144C0A09034
:102EB0000101809170018D83909171019E834090FA
:102EC000720150907301E5E06E9FB0011124CB01B7
:102ED00084559F4F3C014201312C95E0212C39163D
:102EE00029F0C3010196F30124903C01FD81FF8389
:102EF0008E81888798E0998320FE61C0AA82F12C98
:102F0000E12CEB1408F05DC0F401EE0DFF1DFC8315
:102F1000EB83D12CC12CCB1408F06EC06F81788567
:102F20006C0D7D1D4A818B819C810E94D316FFEF21
:102F3000CF1ADF0AF0CF2BEF2003C001219F900DA5
:102F4000112480589F4F2091720130917301821794
:102F500093070CF0ACCF1092730110927201809124
:102F6000700190917101980143E0220F331F4A953F
:102F7000E1F7820F931F90937101809370016A3083
:102F800009F095CF81E090E028960FB6F894DEBF67
:102F90000FBECDBFDF91CF911F910F91FF90EF90AA
:102FA000DF90CF90BF90AF909F908F907F906F9069
:102FB0005F904F903F902F9008951A82A0CFA1105C
:102FC000FCCF2694998191509983EF81F885E00F89
:102FD000F11FF887EF8391118FCF3394800E911EEC
:102FE000F6E03F127ACFB39C400C511C1124509252
:102FF000730140927201C6CF8FEFE81AF80A81CFB1
:10300000089590E080E008950C942334CF92DF92ED
:10301000EF92FF926B017C01C114D104E104F10431
:1030200041F00E948A33A70196010E9439346B0156
:103030007C01C701B601FF90EF90DF90CF9008951B
:10304000CF93DF9388E00E94C516811105C084E00C
:103050000E94C516882389F080910701909108018C
:103060000097F9F489E090E09093080180930701BC
:103070001092AA011092A90192C180E20E94C51685
:10308000811105C080E40E94C5168823E1F080917B
:10309000070190910801009709F013C28AE090E0BF
:1030A000E3CF8130910509F068C08091AF01909124
:1030B000B0018430910509F450C044F48230910588
:1030C000D1F0039719F1DF91CF91089585309105E3
:1030D00009F44AC00697B9F71092A2011092A10113
:1030E0001092AA011092A9011092A8011092A701B2
:1030F00082E090E02DC01092A8011092A7011092DA
:10310000AA011092A90186E090E022C066E070E07A
:1031100080E090E00E9406186F5F7F4F8F4F9F4FB7
:10312000609393017093940180939501909396011D
:1031300080E890E090939801809397011092A80105
:103140001092A7011092AA011092A90184E090E0C8
:103150009093080180930701B6CF1092A8011092B6
:10316000A70183E090E0F4CF1092AA011092A90188
:103170001092A8011092A701EBCF8530910551F470
:103180008091A7019091A8010F969093A801809338
:10319000A70199CF8630910509F0F1C08091A9016E
:1031A0009091AA01892B09F08ECF68E070E080E051
:1031B00090E00E94061860938501709386018093C9
:1031C000870190938801673071058105910550F55D
:1031D000FB01EB50F74E80919D0190919E01A091D3
:1031E0009F01B091A0010C94B034FC1850198719BC
:1031F0009619A519B01945198B3922E09207A10536
:10320000B105BCF12091C50120FD33C08A5992401F
:10321000A109B10980939D0190939E01A0939F0104
:10322000B093A00181E090E09093AA018093A9015E
:103230001092A8011092A70163E070E080E090E096
:103240000E9406186093810170938201809383012C
:103250009093840167E070E080E090E00E9406189F
:103260006093890170938A0180938B0190938C0104
:103270002ACF46E050E060E070E040938501509333
:103280008601609387017093880120910501309138
:1032900006012F5F3F4F309306012093050150C078
:1032A0002091A3013091A4012F5F3F4F3093A401DF
:1032B0002093A30120910301309104012F5F3F4F20
:1032C000309304012093030120919B0130919C01D4
:1032D0002F5F3F4F30939C0120939B0120919901D8
:1032E00030919A012F5F3F4F30939A0120939901BB
:1032F00020910501309106012F5F3F4F3093060169
:10330000209305018C509E4FAF4FBF4F83CF20912C
:10331000A3013091A4012F5F3F4F3093A40120936C
:10332000A301845D9E4FAF4FBF4F74CF2091030127
:10333000309104012F5F3F4F30930401209303012C
:1033400088539F4FAF4FBF4F65CF20919B01309166
:103350009C012F5F3F4F30939C0120939B01F0CF46
:103360002091990130919A012F5F3F4F30939A013C
:10337000209399018C599F4FAF4FBF4F4BCF873050
:10338000910591F48091A9019091AA01892B09F0EE
:103390009ACE81E090E09093AA018093A9011092C7
:1033A000A8011092A7018FCE89309105C1F58091B7
:1033B000A9019091AA01892B09F085CE1092A8014C
:1033C0001092A70188E00E94C516882399F0809189
:1033D000890190918A01A0918B01B0918C01039792
:1033E000A105B105CCF481E090E09093AA0180930F
:1033F000A90169CE84E00E94C516882309F463CE32
:103400008091890190918A01A0918B01B0918C01EA
:103410000397A105B1053CF783E090E0E6CF0A975A
:1034200009F051CE1092A8011092A701C091A901F4
:10343000D091AA01C230D105E9F134F4209789F185
:10344000219709F45CCE3FCEC330D10509F489CE73
:10345000C430D10509F037CE66E070E080E090E03E
:103460000E9406186F5F7F4F8F4F9F4F60939301AD
:1034700070939401809395019093960180E890E079
:1034800090939801809397011092A8011092A70140
:103490001092AA011092A901D0930801C0930701CC
:1034A00012CE1092A2011092A1011092AA011092C4
:1034B000A9011ECE1092AA011092A90185E090E008
:1034C00047CE0A9709F0FFCD1092A8011092A701EC
:1034D00080E20E94C516882351F08091A901909145
:1034E000AA01019797FF81CF84E090E07ECF80E42E
:1034F0000E94C516882309F4E6CD8091A901909118
:10350000AA010196853091050CF46FCF1092AA01A3
:103510001092A901D8CD1F920F920FB60F921124CD
:103520008F939F938091E1009091E100937F90931E
:10353000E10083FF0FC01092E90091E09093EB004F
:103540001092EC0092E39093ED001092DE0198E06F
:103550009093F00082FF22C093E09093E900909155
:10356000F200992319F09AE39093E8009091CF012B
:10357000992341F09091CF0191509093CF019111F7
:1035800001C05D9A9091DD01992341F09091DD0198
:1035900091509093DD01911101C0289A84FF18C0C9
:1035A0008091E2008E7E81608093E2008091E10054
:1035B0008F7E8093E1008091D0018E7E8061809328
:1035C000D0019F918F910F900FBE0F901F90189573
:1035D00080FFF7CF8091E2008E7E80618093E200D1
:1035E0008091E1008E7E8093E1008091D0018E7EFB
:1035F0008160E5CF1F920F920FB60F921124CF92E8
:10360000DF92EF92FF920F931F932F933F934F936D
:103610005F936F937F938F939F93AF93BF93EF933A
:10362000FF93CF93DF93CDB7DEB76C97DEBFCDBFEF
:103630001092E9008091E80083FF25C068E0CE0188
:1036400045960E944D1482EF8093E8008D8987FF94
:1036500039C09091E80090FFFCCF982F907609F048
:1036600034C19E894F89588D2F89F88C911131C0B2
:10367000803861F58091CE018093F1001092F100C5
:103680008EEF8093E8006C960FB6F894DEBF0FBE05
:10369000CDBFDF91CF91FF91EF91BF91AF919F91FE
:1036A0008F917F916F915F914F913F912F911F91DA
:1036B0000F91FF90EF90DF90CF900F900FBE0F9083
:1036C0001F9018959EEF9093E800C7CF1092F100DD
:1036D000D5CF913059F48111D3CF4130510581F6C6
:1036E0008091CE018D7F8093CE01CACF933049F473
:1036F0008111C6CF4130510519F68091CE0182600B
:10370000F2CF953041F48091E80080FFFCCF206833
:103710002093E300B5CF963009F0A9C00B8D1C8D26
:1037200022E01092E9001092CC011092CB01F2122B
:103730002EC01092CA011092C9010E941C141F824F
:1037400099E09983FA8291E09E8390EA98879AEFB4
:1037500099872091CB013091CC01275F3F4F3C836B
:103760002B838D831092E9001092CC011092CB0133
:103770001093CA010093C90149E050E0BE016F5F98
:103780007F4F80E00E94F6130E941C1479CF1093A3
:10379000CA010093C9010E943313DC0112960D91F6
:1037A0001C910115110509F451C1D801ED91FC914D
:1037B0000480F581E02DBE016B5E7F4FC801099545
:1037C000009709F03EC1F80100851185EACFF3E0CA
:1037D000FF120EC08F89882309F440C0823061F443
:1037E00040E867E085EB93E20E94761D811148CFA7
:1037F00081E28093EB0047CF813029F440E86BE011
:1038000089EA93E2F1CF833099F70E943313DC0108
:103810001296ED90FC908E010F5F1F4F6801E1142E
:10382000F10479F0D701ED91FC910680F781E02D4C
:10383000B801C7010995080F111DF701E084F18453
:10384000EECFD8011C92F60101900020E9F73197E4
:10385000BF016C197D0940E0C601C6CF63E973E280
:10386000FB01449150E080E80E94F61309CF9730A5
:1038700009F4BECF983021F481E08093F10000CFAD
:10388000993009F0FDCE837009F0B2CFE2E2F1E0A9
:1038900081E031E096E32191222371F08093E900E9
:1038A0003093EB00DF0111972C912093EC00909363
:1038B000ED008F5F873079F78EE78093EA001092F2
:1038C000EA008F898093DE01DBCE8B8D9C8D109278
:1038D000E9001092CC011092CB019093CA01809321
:1038E000C901898D811192C08E899D89913A49F4CF
:1038F000813209F07DCF47E050E065E171E080E082
:10390000B3CF913209F074CF833269F48F89988DE7
:10391000B0E0A0E08093110190931201A0931301F5
:10392000B0931401ADCE803269F48091E80082FF3B
:10393000FCCF67E085E191E00E944D148BEF80930E
:10394000E8009ECE823209F09BCE8F8980931C01C5
:10395000EEEFFFE7859194918B3F9C4D51F1E0E0B4
:10396000F8E08091150190911601A0911701B09196
:103970001801803B9440A105B105F1F480911C0130
:1039800080FD1AC0EE3F8AE0F80789F587E797E7E0
:1039900091838083809160008093CD0188E19BE0DA
:1039A0000FB6F894A895809360000FBE90936000C6
:1039B00067CEEEEFFAE0D5CF8081918187379747C8
:1039C00009F05ECEA89580916000886180936000C8
:1039D0008091CD0180936000EE3F2AE0F20789F0EC
:1039E0008091FE0A9091FF0A9183808349CE808165
:1039F00091818737980751F29093FF0A8093FE0ACE
:103A0000C5CF1092FF0A1092FE0A3ACE0E943313DD
:103A1000DC0112960D911C910115110509F4E8CEF7
:103A2000D801ED91FC910190F081E02DBE016B5E1B
:103A30007F4FC8010995811123CEF80100851185BA
:103A4000EBCF181619060CF41BCED2CEF1E0FF1204
:103A5000BECE67E973E204CF1F920F920FB60F92AA
:103A600011242F933F938F939F93AF93BF93809194
:103A7000680190916901A0916A01B0916B01309148
:103A8000620123E0230F2D3758F50196A11DB11DCA
:103A9000209362018093680190936901A0936A0169
:103AA000B0936B018091630190916401A0916501D5
:103AB000B09166010196A11DB11D809363019093A1
:103AC0006401A0936501B0936601BF91AF919F918E
:103AD0008F913F912F910F900FBE0F901F901895CF
:103AE00026E8230F0296A11DB11DD2CFEF92FF92BF
:103AF0000F931F93CF93DF93F82E192FE62E042FE9
:103B000081E0860F880F0E94C81383E00E94C813CB
:103B1000CF2DD12FEC0EFD2EF11CCE15DF05B9F007
:103B200007FF13C0FE0184910E94C813182F80E084
:103B30000E94C813812321968111EFCFDF91CF918D
:103B40001F910F91FF90EF9008958881EDCF81E054
:103B5000F5CFEFEDF1E01382128288EE93E0A0E062
:103B6000B0E084839583A683B7838CE291E0918350
:103B700080838FEF9FEF9587848763E070E080E01C
:103B800090E00E9406186F5F7F4F8F4F9F4F6093AA
:103B900068067093690680936A0690936B0663E0EB
:103BA00070E080E090E00E9406186F5F7F4F8F4FBB
:103BB0009F4F6093640670936506809366069093AA
:103BC000670662E070E080E090E00E9406186F5F98
:103BD0007F4F8F4F9F4F6093600670936106809375
:103BE00062069093630663E070E080E090E00E94DC
:103BF00006186F5F7F4F8F4F9F4F60935C067093E7
:103C00005D0680935E0690935F0668E978E080E049
:103C100090E00E940618605E7C4F8F4F9F4F60932C
:103C200058067093590680935A0690935B0668EB8A
:103C30007BE080E090E00E94061868517C4F8F4F37
:103C40009F4F609354067093550680935606909349
:103C500057066CED75E080E090E00E9406186C500D
:103C60007E4F8F4F9F4F6093500670935106809305
:103C700052069093530668EE73E080E090E00E9455
:103C8000061868537F4F8F4F9F4F60934C06709379
:103C90004D0680934E0690934F066CEE74E080E0E4
:103CA00090E00E94061860517F4F8F4F9F4F6093A6
:103CB00048067093490680934A0690934B06E4E4C5
:103CC000F6E0138212828AE491E091838083EFE22E
:103CD000F6E0138212828EE391E0918380838FE27B
:103CE00092E09683858380E890E09087878380E4E4
:103CF00090E09287818785E0848B81E0838B1686B4
:103D00001586108A17861486138681E090E0928BC0
:103D1000818B14820895CF93DF93CDB7DEB72897B8
:103D20000FB6F894DEBF0FBECDBF789484B5826025
:103D300084BD84B5816084BD85B5826085BD85B54F
:103D4000816085BD80916E00816080936E001092CD
:103D50008100809181008260809381008091810048
:103D600081608093810080918000816080938000D9
:103D70008091910082608093910080919100816098
:103D80008093910080919000816080939000809159
:103D9000C10084608093C1008091C10082608093E3
:103DA000C1008091C10081608093C1008091C300F7
:103DB00081608093C3008091C00082608093C000C6
:103DC0008091C20081608093C20080917A008460FB
:103DD00080937A0080917A00826080937A0080914B
:103DE0007A00816080937A0080917A008068809365
:103DF0007A001092DE011092CE011092D0018091D3
:103E0000D70081608093D70080EA8093D80089B57D
:103E1000806189BD89B5826089BD09B400FEFDCF8E
:103E200061E070E080E090E00E94D0148091D800C2
:103E30008F7C80618093D8008091E000807F8093A8
:103E4000E0008091E1008E7E8093E1008DE0809320
:103E5000E200559A209A81EC80937C0085B1806FB6
:103E600085B984B1877E84B984B1876E84B95E9A3E
:103E70005F988AB1806D8AB9769A6E9881B3806FA7
:103E800081BB899880B38D7080BB80E58CBD81E05B
:103E90008DBD85E090E00E94A3165F9A85E090E0DA
:103EA0000E94A3165E985C98ECE1F7E089E297E047
:103EB00024912EBD00000DB407FEFDCF31968E1764
:103EC0009F07B1F75C9A81E8809364008091650058
:103ED0008160809365000E94D0160E94A81687FF1B
:103EE00015C05C9885EA8EBD00000DB407FEFDCFBD
:103EF0005C9A2E982F982D98809164008062809310
:103F0000640081E083BF889513BEFCCF0E94A81691
:103F100082FF48C02D980E94A81684788438E1F466
:103F20000E94A11688EC90E00E94A3162F9882E0D0
:103F300090E00E9423348F3F29F06FEF82E090E001
:103F40000E942B3484EF91E00E94A3162F9A0E94C6
:103F5000A81684788438D9F30E94A8168471843115
:103F6000E1F40E94A11688EC90E00E94A3162E981E
:103F700082E090E00E942334882329F060E082E010
:103F800090E00E942B3484EF91E00E94A3162E9AB9
:103F90000E94A81684718431D9F388EC90E00E94C5
:103FA000A316B4CF0E94A11682E090E00E940418EC
:103FB000882309F454C03E9A3F9A81E090E00E9421
:103FC0000418282F2470722E81FF10C021112E9802
:103FD000A1EF2A2E33243A9408E010E00E94A8169C
:103FE00086FF40C02E9A2F9A0E94A11682E390E08D
:103FF0000E94A3160E94A8168111F8CF8DE7809326
:1040000002010E94B01681E0809300018093670155
:104010008093010154E6C52ED12CAA24A394B12C7F
:104020007AE0272E312C46E0E42EF12C2FB7F894BD
:104030008091680190916901A0916A01B0916B0132
:104040002FBF20916E01222309F4D8C010926E0177
:1040500080E090E0892B51F30E940000E4CF3E986D
:104060003F98ABCF772031F034E02316310411F4C0
:104070002E9A2F9881E00E940A12910137FE04C007
:10408000222733272219330927703327C10137FC30
:104090000796F3E095958795FA95E1F737FE05C009
:1040A0000197A801421B530B9A01BC017695762F0C
:1040B000662777956795615D7D4FF12CE12C28018E
:1040C000421A530A8E3F5FEF950709F43EC0DB01A9
:1040D00050E040E0F701E459F94F5F014B01F0E88F
:1040E0008F0E911C8F3F980781F0F501E40FF51FAB
:1040F000E491022E01C0EE0F0A94EAF75496FC9167
:104100005497EF2B5496EC93549721153105B9F041
:10411000F501E40FF51F64906401C40ED51EE62D71
:10412000F0E0042C02C0F595E7950A94E2F7FC83D1
:10413000EB83F6016488FB816F2AF601648A4F5F86
:104140005F4F11964835510569F60196F8E5EF0E77
:10415000F11C60587F4F40EBE416F10409F0B2CF38
:104160000E94D0168FE090E00E94A3165FEF251A00
:10417000350A89E12816310409F030CF772011F093
:104180002F9A2D9880E991E00E94A3160E94A11613
:1041900081E090E00E94041880FF28CF8AE090E040
:1041A0000E9404189FEF980F9E3F08F01FCF22E354
:1041B00030E0309373012093720128E330E03093B4
:1041C000710120937001ABE0B0E0BA83A983682F3E
:1041D00084E496E00E942F1789819A810E94041836
:1041E000E981FA813196FA83E983719781F70E9418
:1041F000D01688EE93E00E94A316F8CE20916F01AE
:10420000F82FF21B2F2F30910201F31748F42F5F84
:10421000231708F01DCF81E083BF889513BE18CF08
:1042200021E020936E0180936F0180916C01909149
:104230006D01019690936D0180936C010E94B01600
:1042400080917501809374010E94A8168093750176
:104250000E9420188091C5019091C601A091C701CC
:10426000B091C8010196A11DB11D8B3F2FEF9207A0
:10427000A207B20708F0D1C18093C5019093C6018F
:10428000A093C701B093C80180910F0190911001D4
:1042900001969093100180930F0120910D013091B0
:1042A0000E012817390724F4B0921001A0920F01D3
:1042B0004091C5015091C6016091C7017091C8013C
:1042C0008091C1019091C201A091C301B091C4013C
:1042D000009158061091590620915A0630915B06BC
:1042E000800F911FA21FB31F84179507A607B7075A
:1042F000E9F48091090190910A01A0910B01B0911C
:104300000C010197A109B109B7FDB8C1809309015A
:1043100090930A01A0930B01B0930C014093C1014B
:104320005093C2016093C3017093C4018091BD0199
:104330009091BE01A091BF01B091C00100915406BF
:10434000109155062091560630915706800F911F07
:10435000A21FB31F481759076A077B07E9F480912A
:10436000680690916906A0916A06B0916B06019764
:10437000A109B109B7FD8BC18093680690936906C6
:10438000A0936A06B0936B064093BD015093BE01A3
:104390006093BF017093C0018091B9019091BA01FF
:1043A000A091BB01B091BC01009150061091510643
:1043B0002091520630915306800F911FA21FB31F08
:1043C000481759076A077B07E9F4809164069091C2
:1043D0006506A0916606B09167060197A109B1092B
:1043E000B7FD5EC18093640690936506A093660650
:1043F000B09367064093B9015093BA016093BB0133
:104400007093BC018091B5019091B601A091B70164
:10441000B091B80100914C0610914D0620914E06C6
:1044200030914F06800F911FA21FB31F48175907E5
:104430006A077B0721F58091600690916106A09143
:104440006206B09163060397A105B10584F48091DB
:10445000070190910801892B51F483E090E090933B
:10446000B0018093AF01B0920801A0920701409380
:10447000B5015093B6016093B7017093B801809174
:10448000B1019091B201A091B301B091B40100913A
:1044900048061091490620914A0630914B06800F3C
:1044A000911FA21FB31F481759076A077B07E9F43A
:1044B00080915C0690915D06A0915E06B0915F06CA
:1044C0000197A109B109B7FDF4C080935C069093F0
:1044D0005D06A0935E06B0935F064093B1015093D2
:1044E000B2016093B3017093B40180910701909180
:1044F00008014091090150910A0160910B017091EE
:104500000C01452B462B472B09F0DCC0009709F026
:10451000D9C0F092B001E092AF0160E47CE080E0AD
:1045200090E00E9406186093AB017093AC018093F9
:10453000AD019093AE018B019C01085E13402109EF
:104540003109013D17402105310508F4CFC060FD58
:10455000CDC01092AA011092A9011092A801109248
:10456000A70187E090E09093080180930701809174
:104570007501809374010E94A816809375012091A3
:104580000701309108013A8329832530310509F468
:10459000C1C50CF02AC12230310509F43BC20CF030
:1045A000D6C02115310509F473C12130310509F454
:1045B000D0C1809107019091080102970CF0F6C4D8
:1045C00060919D0170919E0180919F019091A00149
:1045D0002AE046E751E00E94E23341E550E0509383
:1045E0003D0640933C0650933B0640933A068CE3CD
:1045F00090E090933F0680933E0646E751E0DA0153
:104600000D900020E9F7AD014757514066E771E092
:104610008FE296E00E947E14C9C41092C5011092E8
:10462000C6011092C7011092C8011092C1011092E8
:10463000C2011092C3011092C4011092BD011092E8
:10464000BE011092BF011092C0011092B9011092E8
:10465000BA011092BB011092BC011092B5011092E8
:10466000B6011092B7011092B8011092B1011092E8
:10467000B2011092B3011092B40106CE109209015A
:1046800010920A0110920B0110920C0147CE109269
:1046900068061092690610926A0610926B0674CE34
:1046A00010926406109265061092660610926706D4
:1046B000A1CE10925C0610925D0610925E061092DA
:1046C0005F060BCF409168065091690660916A06BB
:1046D00070916B06452B462B472B69F4009759F4D4
:1046E00085E090E09093B0018093AF01B092080113
:1046F000A09207013CCF40916406509165066091FD
:10470000660670916706452B462B472B49F40097A8
:1047100039F4A4E0B0E0B093B001A093AF01E6CFCC
:1047200040915C0650915D0660915E0670915F0657
:10473000452B462B472B09F01ACF892B09F017CFB1
:10474000E2E0F0E0F093B001E093AF01CFCF498118
:104750005A814330510509F400C34430510509F032
:1047600028CF8091A9019091AA018230910509F486
:1047700028C40CF08DC3009709F4EAC3019709F02F
:1047800018CF109273011092720187E390E090931A
:104790007101809370016BE774E184E496E00E94FC
:1047A0005A1449EF5FE16DE070E088EE9FEF0E94E0
:1047B000191241E954E168E270E081E690E00E945C
:1047C00019128091A7019091A80101968931910554
:1047D0000CF4E7C11092A8011092A701A2E0B0E08A
:1047E000B093AA01A093A901E4CE89819A8189306E
:1047F000910511F40C94892FDCF48630910509F4AD
:1048000058C6079709F0D5CEE091A901F091AA0109
:10481000E830F10508F0CDCEE05FFB4D0C94B034EC
:10482000D22B0A2C5A2CC62CA12D3A2E9D2E412F6C
:10483000A981BA81AA30B10511F40C94CB32A33608
:10484000B10509F0B6CE4FE357E070E060E090E0CC
:1048500080E00E941912109273011092720129E3F4
:1048600030E0309371012093700169E277E084E4D5
:1048700096E00E945A148091A7019091A801019698
:104880009093A8018093A70149970CF045C291CE5F
:1048900088E090E090930E0180930D010E94201813
:1048A0004FEF51E261E070E085E490E00E94191260
:1048B000E091A501F091A601FA83E9831E161F0677
:1048C000ECF04DE851E26CE070E087E590E00E948A
:1048D0001912E0910F01F09110013197E830F105C4
:1048E00008F067CEEA58FB4D0C94B0348F248F2427
:1048F0009A249A249F249F24A424A4244BE151E2C7
:104900006CE070E087E590E00E94191229813A81FD
:10491000215031093093A6012093A501DACF0E94DE
:10492000201849EF5FE168E070E088E090E00E94C5
:1049300019123FCE0E94201847ED5EE1F4CF0E948D
:10494000201845EB5DE1EFCF0E94201843E95CE1C0
:10495000EACF88E090E090930E0180930D010E94D1
:1049600020184FEF51E261E070E085E490E00E9492
:1049700019128091AF019091B0018430910591F1AD
:10498000E4F48230910529F147EC5BE10397E1F013
:10499000E0910F01F09110013197E830F10508F036
:1049A00008CEEB52FB4D0C94B0348F248F2400259D
:1049B000002505250525A424A42485309105C9F0EA
:1049C00049E95AE1069721F76CE070E088E590E04C
:1049D00006C041E35CE160E170E085E590E00E94A3
:1049E0001912D6CF4DE75BE16EE070E089E590E00B
:1049F000F6CF43E05BE16BE070E086E590E0EFCF5F
:104A00000E94201847E759E18ECF0E94201845E503
:104A100058E189CF8091A9019091AA018130910537
:104A200009F496C08230910509F426C1892B09F05A
:104A3000C0CD8091A3019091A401181619060CF520
:104A4000B092A201A092A10101979093A40180933A
:104A5000A30180919D0190919E01A0919F01B09131
:104A6000A0014E96A11DB11D80939D0190939E01C2
:104A7000A0939F01B093A001B092AA01A092A901B6
:104A800098CD80919B0190919C0118161906BCF459
:104A900049815A815093A2014093A10101979093BB
:104AA0009C0180939B0180919D0190919E01A0911A
:104AB0009F01B091A0014496A11DB11DD5CF809159
:104AC000990190919A0118161906BCF423E030E080
:104AD0003093A2012093A101019790939A018093B2
:104AE000990180919D0190919E01A0919F01B091AB
:104AF000A0010A96A11DB11DB7CF8091050190912B
:104B000006011816190664F4A4E0B0E0B093A201FF
:104B1000A093A10101979093060180930501C3CF53
:104B200080910301909104011816190664F4E5E0E0
:104B3000F0E0F093A201E093A101019790930401AA
:104B400080930301B0CFF092A201E092A10194CF33
:104B500010927301109272013092710120927001D3
:104B60006FE788E090E00E94D5126FE782E190E065
:104B70000E94D5128091A1019091A20183309105EC
:104B800009F43FC09CF48130910509F1029771F15D
:104B90008091A7019091A8010196893191050CF0AF
:104BA00051C09093A8018093A70103CD8530910552
:104BB000F1F194F1069761F74BE355E16CE170E098
:104BC00082E390E00E94191265E275E10AC043EEAB
:104BD00057E16CE170E082E390E00E9419126DEC05
:104BE00077E184E496E00E945A14D2CF4BE557E176
:104BF0006CE170E082E390E00E94191265E477E1D5
:104C0000F0CF43ED56E16CE170E082E390E00E946A
:104C100019126DEB76E1E5CF4BE456E16CE170E003
:104C200082E390E00E94191265E376E1DACF43EC6B
:104C300055E16CE170E082E390E00E9419126DEAA8
:104C400075E1CFCF1092A8011092A7018091A10128
:104C50009091A201069739F022E030E03093AA014A
:104C60002093A901A6CC1092AA011092A901F0925A
:104C70000801E09207019DCC8091A1019091A201D1
:104C8000069781F0109273011092720187E390E011
:104C900090937101809370016FE075E184E496E078
:104CA0000E945A1449EF5FE16DE070E088EE9FEFDB
:104CB0000E9419124091A1015091A2015A83498387
:104CC0004330510509F443C064F541305105C9F141
:104CD00042305105C9F18091A7019091A801019638
:104CE000893191050CF45DCF1092A8011092A701B3
:104CF000A981BA81169784F4D092A601C092A50129
:104D000023E030E040E050E02093090130930A01B5
:104D100040930B0150930C0110920801109207016F
:104D200048CC89819A8184309105A1F043EC55E10A
:104D3000059789F66EE070E082E390E00E94191218
:104D4000CACF43EE57E1F6CF4BE557E1F3CF43ED42
:104D500056E1F0CF4BE456E1EDCF86E490E090933E
:104D60003D0680933C0690933B0680933A0638E2DA
:104D7000832E912C90923F0680923E0649EF5FE190
:104D800068E070E088E090E00E9419128091A7012D
:104D90009091A801AC014E5F5F4F5A8349835093B5
:104DA000A8014093A7014F315105E4F40DE210E052
:104DB000041B150B47EF54E1B80180E590E00E9419
:104DC0001912B40189819A81681B790B47EF54E16C
:104DD0008CE590E00E94191247EF54E1B80188E693
:104DE00090E0A5CD9C012D51310926333105F8F411
:104DF00047EF54E16FE070E080E590E00E94191207
:104E000047EF54E16AE070E08CE590E00E941912EF
:104E100047EF54E16FE070E088E690E00E941912DD
:104E20006CEE74E18FE296E00E945A14C2CB835577
:104E30009109479718F461EE74E1F4CFA981BA8122
:104E4000AC36B10509F4B2C0D092A601C092A5015A
:104E500080919D0190919E01A0919F01B091A00130
:104E6000C296A11DB11D80939D0190939E01A093B8
:104E70009F01B093A00123E030E040E050E0209398
:104E8000640630936506409366065093670644CFE8
:104E90008330910509F4CFC0049709F08ACB47EC21
:104EA0005BE16CE170E083E390E00E9419121092E4
:104EB000730110927201309271012092700167E5C6
:104EC00073E184E496E00E945A146FE788E090E072
:104ED0000E94D5126FE782E190E00E94D512809186
:104EE000A7019091A8010196893191050CF459CE42
:104EF0001092A8011092A701D092A601C092A5011C
:104F000080919D0190919E01A0919F01B091A0017F
:104F10008C599F4FAF4FBF4F80939D0190939E013F
:104F2000A0939F01B093A0018091600690916106CB
:104F3000A0916206B09163060196A11DB11D8093F8
:104F4000600690936106A0936206B0936306E4CE78
:104F500049EF5FE16DE070E088EE9FEF0E9419126B
:104F600040919701509198015A83498341E954E156
:104F700068E270E089819A810E94191289819A8180
:104F800001979A838983813691059CF090939801CB
:104F9000809397018091A7019091A80101968E318D
:104FA000910554F49093A8018093A7010E94D01614
:104FB0004FC881E690E0EACF1092A8011092A701B5
:104FC0005BCD6FE788E090E00E94D5126FE788E341
:104FD00090E00E94D51241E954E165E170E081E67C
:104FE00090E00E941912F0923D06E0923C06F09289
:104FF0003B06E0923A0682E190E090933F06809370
:105000003E0665E474E18FE296E00E945A148091B6
:10501000A7019091A8010196893191050CF4C1CDA9
:105020001092A8011092A70183E090E09093AA014A
:105030008093A901BECA68E070E088E090E00E9419
:10504000F11668E370E088E390E00E94F11641E910
:1050500054E165E170E081E690E00E941912F0925F
:105060003D06E0923C06F0923B06E0923A0682E171
:1050700090E090933F0680933E068091930190913B
:105080009401A0919501B091960183309105A105FD
:10509000B105B9F114F581309105A105B10571F1A2
:1050A0006CEF73E10297A105B10519F18091A70199
:1050B0009091A80101969093A8018093A701499728
:1050C0000CF477CA1092A8011092A701E4E0F0E076
:1050D000F093AA01E093A9016CCA85309105A1055E
:1050E000B105A9F08CF06DE673E10697A105B10555
:1050F000E9F68FE296E00E945A14D8CF61E274E19B
:10510000F8CF6EED73E1F5CF6AEB73E1F2CF62E9B0
:1051100073E1EFCF8091A9019091AA01009709F462
:1051200063C0019709F045CA109273011092720191
:10513000309271012092700161E473E184E496E0A1
:105140000E945A1449EF5FE16DE070E088EE9FEF36
:105150000E94191247EF54E162E370E085E490E0A9
:105160000E94191247EF54E162E370E081E590E09C
:105170000E94191247EF54E162E370E08DE590E080
:105180000E9419128091A7019091A801019689317E
:1051900091050CF406CD1092A8011092A701D092AF
:1051A000A601C092A50180919D0190919E01A091C0
:1051B0009F01B091A00188539F4FAF4FBF4F809385
:1051C0009D0190939E01A0939F01B093A00123E0C5
:1051D00030E040E050E02093680630936906409349
:1051E0006A0650936B0698CD49EF5FE168E070E086
:1051F00086E290E00E9419120E94201865E070E09B
:1052000080E090E00E9406182B013C01F2E04F1A6A
:1052100051086108710840928F015092900160928C
:105220009101709292018091A7019091A80102973B
:1052300097FF22C01092A8011092A7018090A701A9
:105240009090A8012EE4821691043CF535E2831675
:1052500091040CF08FC045E0841691040CF47BC0DF
:10526000C201869650E1851691040CF07AC043E0A5
:105270005BE160E270E09DC0803891052CF4909372
:10528000A8018093A701DACF1092A8011092A7017C
:10529000B092AA01A092A901D1CF8FE688169104FD
:1052A0000CF054C0D2019696BA83A983F201FA9603
:1052B000FC83EB83C20147969201275B3F4F3E83FD
:1052C0002D838201005E1F4FA201405C5F4F588713
:1052D0004F8353E6851691040CF46EC043E05BE106
:1052E00060E170E00E94191243E05BE160E270E06F
:1052F00089819A810E94191243E05BE160E270E0CB
:105300008B819C810E94191243E05BE160E170E0B7
:105310008D819E810E94191243E05BE160E270E0A2
:10532000C2010E94191243E05BE170E060E0C80135
:105330000E94191243E05BE170E060E08F81988584
:105340000E941912C201805A9F4F91CF87E9881697
:1053500091040CF45DC0682D8FE390E00E94D5129B
:1053600028C943E05BE160E270E00E941912C201CB
:10537000CA967DCFC201479643E05BE160E170E0F1
:105380000E941912C201869643E05BE160E270E080
:105390000E941912C201CA9643E05BE160E270E02C
:1053A0000E941912C201875B9F4F43E05BE160E1FD
:1053B00070E00E941912CFCF43E05BE160E170E042
:1053C0000E94191243E05BE160E270E089819A81FA
:1053D0000E94191243E05BE160E270E08B819C81E6
:1053E0000E94191243E05BE160E170E08D819E81D3
:1053F0000E94191243E05BE170E060E0C8010E9486
:10540000191243E05BE170E060E08F819885D1CFB5
:10541000C201479643E05BE160E170E00E9419122F
:10542000C201869643E05BE160E270E00E941912DF
:10543000C201CA9643E05BE160E270E00E9419128B
:10544000C201875B9F4F43E05BE160E170E00E9437
:10545000191243E05BE160E270E0C2010E941912A0
:10546000C201809643E05BE170E060E00E941912A7
:10547000C201805C9F4F43E05BE170E060E00E940E
:105480001912C201805A9F4F43E05BE160E270E075
:105490000E941912C201409643E05BE160E370E0B4
:1054A0000E941912C201C09643E05BE160E370E024
:1054B00080CF8091A9019091AA01009709F09EC028
:1054C0000E94201887E090E090930E0180930D01D8
:1054D00045E050E050933D0640933C0650933B0618
:1054E00040933A0689819A8190933F0680933E06C5
:1054F00068E273E18FE296E00E945A144EE552E1B1
:1055000062E170E083E090E00E9419124EE552E102
:1055100062E170E08CE290E00E9419124EE552E1E7
:1055200062E170E085E590E00E9419120E94201867
:1055300089E090E090938E0180938D0180918D01A0
:1055400090918E018C3591050CF045C068E070E0BB
:1055500080E090E00E9406186093890170938A01B0
:1055600080938B0190938C016830710581059105C2
:10557000B8F46E53754D80918D0190918E01FB01B1
:105580000C94B034CA2AD62AD92ADC2ADF2AE22A85
:10559000E52AE82A4BE355E168E170E00E94191220
:1055A00080918D0190918E018996C4CF4CEE51E18E
:1055B000F3CF43EE57E1F0CF43EC55E1EDCF4BE5B0
:1055C00057E1EACF43ED56E1E7CF4BE456E1E4CFB4
:1055D0004AE751E1E1CF8091A7019091A80101969E
:1055E0009093A8018093A7018132934014F40C9406
:1055F000D9221092A8011092A7018ECB019709F031
:10560000D5CC1092730110927201309271012092E8
:1056100070016FE788E090E00E94D5126FE782E1A9
:1056200090E00E94D5128091850190918601A09111
:105630008701B091880188309105A105B105D8F4A2
:10564000FC01EB5DF44D0C94B0342D2B742B7F2BAF
:105650008A2B952BA02BAB2BB62B4BE355E16CE1A2
:1056600070E082E390E00E94191264E671E184E444
:1056700096E00E945A148091A7019091A80101968A
:10568000893191050CF48DCA1092A8011092A701DE
:105690008091850190918601A0918701B091880148
:1056A000181619061A061B060CF0DDCA0797A10585
:1056B000B10509F066C01092AA011092A90180916B
:1056C0009D0190919E01A0919F01B091A001880F32
:1056D000991FAA1FBB1F80939D0190939E01A093C9
:1056E0009F01B093A001C3CA4CEE51E16CE170E0A0
:1056F00082E390E00E9419126EE471E1B8CF43EEAC
:1057000057E16CE170E082E390E00E94191268E3D7
:1057100071E1ADCF43EC55E16CE170E082E390E0E4
:105720000E94191262E271E1A2CF4BE557E16CE1F0
:1057300070E082E390E00E9419126CE071E197CF73
:1057400043ED56E16CE170E082E390E00E941912B3
:1057500066EF70E18CCF4BE456E16CE170E082E3E0
:1057600090E00E94191260EE70E181CF4AE751E1AA
:105770006CE170E082E390E00E9419126AEC70E143
:1057800076CFD092A601C092A50123E030E040E0A0
:1057900050E020935C0630935D0640935E06509384
:1057A0005F06BACA0E94201848E550E16EE070E03A
:1057B00082E390E00E94191283E290E090933D060C
:1057C00080933C0690933B0680933A068BE390E0EF
:1057D00090933F0680933E066BE470E18FE296E083
:1057E0000E945A148091A7019091A801019690936C
:1057F000A8018093A701813C924114F40C94D92212
:10580000B092AA01A092A9011092A8011092A7013A
:105810000C94D92249EF5FE16DE070E088EE9FEFD4
:105820000E9419128091AB019091AC01A091AD0141
:10583000B091AE01883E43E09407A105B10594F50F
:1058400049ED5FE06EE070E080E690E00E941912A2
:105850008DE290E090933D0680933C0690933B064A
:1058600080933A068BE390E090933F0680933E0648
:1058700064E57FE08FE296E00E945A148091A701D0
:105880009091A80101969093A8018093A701499750
:1058900014F40C94D92282E090E09093AA018093B2
:1058A000A901B2CF893B9B40A105B1058CF24FE520
:1058B0005FE0C8CF49EF5FE16DE070E088EE9FEFF9
:1058C0000E9419128DE290E090933D0680933C0671
:1058D00090933B0680933A068BE390E090933F06CB
:1058E00080933E068091AB019091AC01A091AD01F7
:1058F000B091AE01883EE3E09E07A105B105D4F466
:10590000843FF1E09F07A105B10574F562E47FE0F3
:10591000B7FF2CC08091A7019091A80101969093A8
:10592000A8018093A701499714F40C94D92283E02D
:1059300090E0B3CF893B2BE09207A105B10554F36A
:105940008D313CE09307A105B105ECF06BE17FE000
:1059500081349C40A105B105ECF68FE296E00E94EF
:105960005A144FE55FE008C061E37FE08FE296E004
:105970000E945A1449ED5FE06EE070E080E690E02E
:105980000E941912C7CF64E27FE0E7CF49EF5FE1E1
:105990006DE070E088EE9FEF0E9419128DE290E0BA
:1059A00090933D0680933C0690933B0680933A0685
:1059B0008BE390E090933F0680933E068091AB018D
:1059C0009091AC01A091AD01B091AE018B3E5BE036
:1059D0009507A105B105D4F5893BEBE09E07A1052C
:1059E000B1050CF07AC0883E9340A105B10508F4DA
:1059F00046C08091A7019091A80101968931910537
:105A00000CF4CFC81092A8011092A7018091AB01AD
:105A10009091AC01A091AD01B091AE018B3EEBE055
:105A20009E07A105B1050CF05EC0893BFBE09F0716
:105A3000A105B1050CF065C0883E9340A105B105F4
:105A400010F00C94D92284E090E0F0CA8D312CE063
:105A50009207A105B1050CF443C06EEE7DE08134E0
:105A60009C40A105B1052CF68FE296E00E945A14E5
:105A70004FE55FE06EE070E080E690E022C06EE00F
:105A80007FE08FE296E00E945A1449ED5FE06EE0FD
:105A900070E080E690E00E9419128091AB01909135
:105AA000AC01A091AD01B091AE01843F41E09407FB
:105AB000A105B1054CF444E95EE06EE070E081E3DD
:105AC00090E00E94191295CF883E9340A105B10540
:105AD0000CF08FCF42E25EE0F0CF6EE07EE0C4CF0C
